:1000000010308A0000280000FF00030E8301A100C9
:100010000A08A0008A010408A2007708A300780853
:10002000A4007908A5007A08A6007B08A70083131E
:1000300083120B1E1D288B183C288C308400801ED8
:1000400023288C1A3F288C308400001C29280C1887
:100050004228220884002308F7002408F800250815
:10006000F9002608FA002708FB0020088A00210E64
:100070008300FF0E7F0E09008A110A1248298A1197
:100080000A1210298A110A12DA280A108A100A1193
:1000900082070134043407340A3402340534083446
:1000A0000B340334063409340C3400340034003487
:1000B00000340A108A100A11820750344334203465
:1000C0005A340D3400340A108A100A118207503451
:1000D00043342034463420342F3430342F34253404
:1000E00073342E346D34703433340D3400340A10CC
:1000F0008A100A11820750344334203453340D34AB
:1001000000340A108A100A11820753345434203400
:1001100056342034253475340D3400340A108A10D6
:100120000A118207533454342034423420342534A5
:1001300075340D3400340A108A100A1182075334C2
:10014000543420344434203432340D3400340A1012
:100150008A100A118207533454342034483420342E
:1001600031340D3400340A108A100A1182075334D6
:10017000543420344F34203430340D3400340A10D9
:100180008A100A1182075334543420344F342034F7
:1001900031340D3400340A108A100A1182076C348D
:1001A0006934653464345F34253475345F34253400
:1001B000753400340F08FA000E08F7000F087A02B1
:1001C000031DDA28770883160317BA007A08BB00E4
:1001D00078303A07BC003B08BD00EC300318ED3026
:1001E000BD073D08831203138F00831603173C08D5
:1001F000831203138E003014B108031D0B29B014B1
:100200000A30B100B208031D092930150A30B200C6
:100210000A29B2030C29B1030C108A110A122928E9
:100220008C1E10291808AE001A08F800AE1C1A29F6
:1002300018121816780883160317BA0083120313CE
:10024000B0194429831603173A083E3C031D34298C
:100250004230831203136207840083138001B015B8
:10026000E201442983160317423083120313620705
:1002700084008313831603173A0880008312031344
:1002800062081F3C0318E20A8C128A110A122928FC
:10029000061C4F297E148316011352298312B017AE
:1002A0008316011783128B108A110A1229288501DF
:1002B0000034831603173708F80136020318632940
:1002C0003608F7006F29F7010830B800B60DF70DB2
:1002D000370877020318F700F80DB80B6629831268
:1002E00003130034831603179D031D08B600033063
:1002F000B7008312031359217808831603179E0051
:100300001E08A0000330A100F701F8012008031027
:100310002118F707F70CF80CA118F707F70CF80CE1
:100320002119F707F70CF80CA119F707F70CF80CCF
:10033000211AF707F70CF80CA11AF707F70CF80CBD
:10034000211BF707F70CF80CA11BF707F70CF80CAB
:1003500078081D029F000130F7001E08F8000319FD
:10036000B5290310F70DF80BB1297708770EA10016
:10037000F030A10501301F07F8000130F700F80840
:100380000319C6290310F70DF80BC22977082104B9
:10039000A20083120313860000349B30840083176D
:1003A00000080319E0290630F800F701F70BD629F9
:1003B000F80BD5297B30F700F70BDC29800BD3290C
:1003C000003474088316031735020319FE29A03080
:1003D0007307840083133508800073081D3C031DD8
:1003E000F629F2080319F529F301FC2901307202FC
:1003F00073020319FC29F30A3508F400831203136E
:10040000003483160317220883120313AD008316EA
:100410000317210883120313AC0083160317200867
:1004200083120313AB00831603171F0883120313F1
:10043000AA000034013003178D0083168C130C14AE
:1004400083120C0883169A00A201A101A0011A08C8
:100450009F008312031301228A110A16A62A043070
:1004600083160317B50083120313E1210034013012
:10047000F500F601153083160317B5008312031338
:10048000E1210034301E4B2A043083160317B500D7
:1004900083120313E121831603173408B8003308CD
:1004A000B700B6016830B5003708840083133818E8
:1004B00083170008B90035088400831336188317A2
:1004C0003908800080080319682AB50AB70A542A37
:1004D0000330B50083120313E1210130F80000342A
:1004E0000130F700831603172008F80003197C2A4F
:1004F0000310F70DF80B782A77088312031385048D
:1005000000345721831603171F08053C031D912A49
:10051000B401CA30B300831203134222C02A8316E7
:1005200003171F08043C031D9E2AB401D030B300FA
:10053000831203134222C02A831603171F08033CA9
:10054000031DAB2AB401D630B30083120313422239
:10055000C02A831603171F08023C031DB82AB401E2
:10056000DC30B300831203134222C02A8316031720
:100570001F0BC22AB401E230B300831203134222DC
:10058000831603171F08A000831203137022003480
:10059000163083160317B50083120313E1210130CF
:1005A000F500F601FD0190307D07840083170008F7
:1005B000831603179D009F008312031381220034CA
:1005C0000034831603171C089D00013083128D0030
:1005D00083168C130C1483120C0883169E001D08BE
:1005E0009E07A201A101A0011E089F008312031310
:1005F0000122831603171C080C3C031CF42B8312E6
:1006000003132F0B122B163083160317B50083121A
:100610000313E121043083160317B500831203137B
:10062000E121772B2F08023C031D252B1630831662
:100630000317B50083120313E12104308316031757
:10064000B50083120313E121772B2F08033C031D10
:10065000312B043083160317B50083120313E121F5
:10066000772B2F08043C031D3D2B04308316031702
:10067000B50083120313E121772B2F08053C031DDE
:10068000492B043083160317B50083120313E121AD
:10069000772B2F08063C031D552B043083160317B8
:1006A000B50083120313E121772B2F08073C031DAC
:1006B0005B2B2F22772B2F08083C031D612B2F2249
:1006C000772B2F08093C031D672B2F22772B2F0830
:1006D0000A3C031D6D2B2F22772B2F080B3C031D8B
:1006E000732B2F22772B2F080C3C03192F228316F4
:1006F00003171C08831203132F020319A22B83165E
:1007000003171C0883120313AF00053003178D0075
:1007100003132F0803178C0083168C130C158312F8
:1007200003130B08F7008B138316031755308D0046
:10073000AA308D008C148C189B2B0C117708831217
:1007400003138B042F08831603179D0083120313D2
:100750007221F501F601B012301357212F0BB22B85
:100760003722F22B2F08023C031DBE2B15308316B7
:100770000317B50083120313E121F22B2F08033C6A
:10078000031DC42BC822F22B2F08043C0319F22BA3
:100790002F08053C0319F22B2F08063C0319F22BF6
:1007A0002F08073C031DD62BE022F22B2F08083C14
:1007B000031DDC2BE022F22B2F08093C031DE22B4A
:1007C000E022F22B2F080A3C031DE82BE022F22B3B
:1007D0002F080B3C031DEE2BE022F22B2F080C3CC4
:1007E0000319E022831603178312031300347808D9
:1007F000831603171B08B6006430B7008312031377
:1008000059217708831603179B0078083030031DA1
:10081000102C9C1C1C2C9C191C2C1C1A2030132CDA
:100820009C111C121C14F8077808831203130C1E69
:10083000172C9900831603171B08B6000A30B7005F
:100840008312031359217708831603179B00780836
:100850003030031D312C9C193A2C1C1C3A2C1C1ACC
:100860002030F8077808831203130C1E352C9900EA
:100870008316031730309B071B08831203130C1ECB
:100880003F2C99000034630B5E2C831603179A01EA
:100890001A08831203135920831603179A0AF700C4
:1008A000831203130C1E522C990005308316031774
:1008B0001A02031D482C802D831203136308033C86
:1008C000031DA22C3016831603179A011A088312EF
:1008D00003136320831603179A0AF7008312031386
:1008E0000C1E702C99000830831603171A02031D82
:1008F000662C6830840083130030000403198A2CAE
:100900000008831203130C1E832C9900840A83169B
:1009100003177C2C0A309D001D08831203136320EB
:10092000831603179D0AF700831203130C1E962CDF
:1009300099000F30831603171D02031D8C2C802D88
:10094000831203136308043C031DBF2C8316031793
:100950009A011A08831203137720831603179A0A41
:10096000F700831203130C1EB32C99000530831675
:1009700003171A02031DA92C802D83120313630889
:10098000023C031DE92C831603179A011A088312EF
:1009900003138120831603179A0AF70083120313A7
:1009A0000C1ED02C99000530831603171A02031D64
:1009B000C62C831203136508831603179B001B3094
:1009C0009C0083120313F7230D300C1EE52C9900B5
:1009D000822D6308113C031D0F2D831603179A0106
:1009E0001A08831203138E20831603179A0AF7003E
:1009F000831203130C1EFA2C99000530831603177B
:100A00001A02031DF02C07309B001B309C00831240
:100A10000313F7230D300C1E0B2D9900822D630854
:100A2000123C031D2C2D831603179A011A088312FA
:100A300003139B20831603179A0AF70083120313EC
:100A40000C1E202D99000730831603171A02031D70
:100A5000162D802D831203136308143C031D492DAA
:100A6000831603179A011A0883120313A72083160B
:100A700003179A0AF700831203130C1E3D2D9900E9
:100A80000730831603171A02031D332D802D83129E
:100A900003136308153C031D662D831603179A0183
:100AA0001A0883120313B320831603179A0AF70058
:100AB000831203130C1E5A2D990007308316031757
:100AC0001A02031D502D802D831203136308163C58
:100AD000031D822D831603179A011A08831203132C
:100AE000BF20831603179A0AF700831203130C1E04
:100AF000772D99000730831603171A02031D6D2DF9
:100B0000831203136430E600003473087202031D7D
:100B10008C2D0030F8009A2D730872020318952D61
:100B200072087302F8009A2D9A2D72081E3C730702
:100B3000F8009A2DF8080319C32DE308031DC32DEF
:100B4000B019C32D831603179A0173087202031993
:100B5000B62DA03072078400831300089A00720833
:100B60001D3C031DB52DF201B62DF20A7308720269
:100B70000319F4011A08F800780883120313E3003C
:100B80000330E70043248A110A16C52A572100348E
:100B90002F0BD12D831603171A089B008D2E83125D
:100BA00003132F08023C031DDC2D831603171A08BC
:100BB0009B008D2E831203132F08033C031D202E50
:100BC000831603171A089B00831203135721750B12
:100BD000FF2D76087D020318FB2DFD0A90307D075E
:100BE000840083170008831603179C009F0083125C
:100BF00003138122FE2D0230F500FD011F2E750822
:100C0000023C031D1F2E7D08760203181F2E760856
:100C1000053C031D192E013083160317B4004E3016
:100C2000B3008312031342220430F5001430FC0099
:100C30001F2E0130F500F60AFD010730FC008B2E57
:100C40002F08043C031D2C2E831603171A089B0043
:100C50008312031357218B2E2F08053C031D382EBA
:100C6000831603171A089B008312031357218B2E38
:100C70002F08063C031D442E831603171A089B00F9
:100C80008312031357218B2E2F08073C031D502E70
:100C9000831603171A089B0083120313C6258B2E95
:100CA0002F08083C031D5C2E831603171A089B00AF
:100CB00083120313C6258B2E2F08093C031D682EB3
:100CC000831603171A089B0083120313C6258B2E65
:100CD0002F080A3C031D742E831603171A089B0065
:100CE00083120313C6258B2E2F080B3C031D802E69
:100CF000831603171A089B0083120313C6258B2E35
:100D00002F080C3C031D8B2E831603171A089B001B
:100D100083120313C62583160317031383128A1144
:100D20000A16D12A750883160317A000831203132D
:100D3000702200342F0BA32E831603171A089B0072
:100D40002C2F831203132F08023C031DAE2E831693
:100D500003171A089B002C2F831203132F08033C40
:100D6000031DB92E831603171A089B002C2F83121C
:100D700003132F08043C031DC72E831603171A08FC
:100D80009B007508A0008312031370222A2F2F08DE
:100D9000053C031DD52E831603171A089B00750802
:100DA000A0008312031370222A2F2F08063C031D74
:100DB000E32E831603171A089B007508A000831200
:100DC000031370222A2F2F08073C031DEF2E8316D2
:100DD00003171A089B008312031392262A2F2F0849
:100DE000083C031DFB2E831603171A089B00831271
:100DF000031392262A2F2F08093C031D072F831661
:100E000003171A089B008312031392262A2F2F0818
:100E10000A3C031D132F831603171A089B00831225
:100E2000031392262A2F2F080B3C031D1F2F831616
:100E300003171A089B008312031392262A2F2F08E8
:100E40000C3C031D2A2F831603171A089B008312DC
:100E50000313922683160317031383128A110A16AB
:100E6000DC2A83166D08840083136E18831703171A
:100E700036088000840A80010313ED0A0319EE0A84
:100E8000831200347808831603173408B6006430E0
:100E9000B700831203135921770883160317B40090
:100EA00078083030031D5B2FB51C662FB519662FEF
:100EB000351A20305E2FB51135123514F807780831
:100EC000B600831203133127831603173408B600C4
:100ED0000A30B700831203135921770883160317CA
:100EE000B40078083030031D7B2FB519832F351CD3
:100EF000832F351A2030F8077808B60083120313C1
:100F00003127831603173030B4073408B600831234
:100F100003133127003401308316EE009F30ED00BB
:100F20000317B301330883120313CB20831603176F
:100F3000B30AF700B6008312031331270530831676
:100F400003173302031D922F831203132F088316F6
:100F50000317B4001B30B5008312031342275F3020
:100F600083160317B6008312031331278316031762
:100F70001E08B4001B30B500831203134227013052
:100F800083160317B4009F30B30083120313422269
:100F9000F8080319D12F831603171E08F5008312D2
:100FA000031300340034831603179A0183120313CA
:100FB0003E083D020319ED2F33303D0784008313B3
:100FC0000008831603179A00831203133D08093C97
:100FD000031DEC2FBD01ED2FBD0A831603171A0860
:0E0FE000F800031383128A110A16F72A003450
:10100000831603171B08C039803C031DFF2A1B1ED3
:101010005A2A1B080F399C001C089D0083120313D9
:101020002F0B3E28831603171D089E0076081E020C
:10103000031D3B280430B5008A1183120313E121FC
:101040008A15163083160317B5008A11831203130D
:10105000E1218A1583160317B401C430B3008A1145
:101060008312031342228A150230F5001430FC006B
:10107000392883160317592A831203132F08023CB9
:10108000031D4E28831603171D089E001E089F008F
:101090008A118312031381228A15572A2F08033CD1
:1010A000031D8228831603171D089E007508023C45
:1010B000031D7F2883120313301A7D2890307D078B
:1010C000840083170008831603171E02031D73286C
:1010D000FD0A1E089F008A118312031381228A15BC
:1010E0007D2883160317B401C430B3008A1183121C
:1010F000031342228A150330F50083160317592A79
:10110000831203132F08043C031D022983160317BF
:101110001D089E001E08023C031DA228B401E830F1
:10112000B3008A118312031342228A15F8080319A7
:101130009F28831603171E08F50083120313012945
:10114000831603171E0BB9280130B4001730B30003
:101150008A118312031342228A15F8080319B6284C
:10116000831603171E08F500831203130129831643
:1011700003171E08043C031DD2280130B40026309A
:10118000B3008A118312031342228A15F808031947
:10119000CF28831603171E08F500831203130129B5
:1011A000831603171E08033C031DEB280130B4000F
:1011B0001030B3008A118312031342228A15F808F3
:1011C0000319E828831603171E08F500831203137A
:1011D0000129831603171E08053C031DFF28013053
:1011E000B4001F30B3008A118312031342228A1500
:1011F000F80803190129831603171E08F500831246
:101200000313572A2F08053C031D83298316031750
:101210001D089E001E0B21290130B4002B30B300A5
:101220008A118312031342228A15F80803191E2912
:10123000831603171E08F5008312031382298316F1
:1012400003171E08023C031D3A290130B400323056
:10125000B3008A118312031342228A15F808031976
:101260003729831603171E08F500831203138229FA
:10127000831603171E08033C031D53290130B400D5
:101280003930B3008A118312031342228A15F808F9
:1012900003195029831603171E08F5008312031340
:1012A0008229831603171E08043C031D6C29013094
:1012B000B4004030B3008A118312031342228A150E
:1012C000F80803196929831603171E08F50083120D
:1012D00003138229831603171E08053C031D80296A
:1012E0000130B4004730B3008A1183120313422245
:1012F0008A15F80803198229831603171E08F500BA
:1013000083120313572A2F08063C031D042A831651
:1013100003171D089E001E0BA2290130B4004E3099
:10132000B3008A118312031342228A15F8080319A5
:101330009F29831603171E08F50083120313032A3F
:10134000831603171E08023C031DBB290130B4009D
:101350005430B3008A118312031342228A15F8080D
:101360000319B829831603171E08F5008312031307
:10137000032A831603171E08033C031DD4290130DA
:10138000B4005A30B3008A118312031342228A1523
:10139000F8080319D129831603171E08F5008312D4
:1013A0000313032A831603171E08043C031DED29AB
:1013B0000130B4006030B3008A118312031342225B
:1013C0008A15F8080319EA29831603171E08F50081
:1013D00083120313032A831603171E08053C031DFB
:1013E000012A0130B4006630B3008A11831203135E
:1013F00042228A15F8080319032A831603171E08C8
:10140000F50083120313572A2F08073C031D122AE5
:10141000831603171D089E008A11831203138B275E
:101420008A15572A2F08083C031D202A8316031704
:101430001D089E008A11831203138B278A15572AD1
:101440002F08093C031D2E2A831603171D089E0032
:101450008A11831203138B278A15572A2F080A3CF7
:10146000031D3C2A831603171D089E008A11831250
:1014700003138B278A15572A2F080B3C031D4A2A72
:10148000831603171D089E008A11831203138B27EE
:101490008A15572A2F080C3C031D572A8316031759
:1014A0001D089E008A11831203138B278A15831649
:1014B0000317FE2A1B080F399C001C089D0083128D
:1014C00003132F0B6A2A831603171D089E00FE2A9A
:1014D000831203132F08023C031D7D2A8316031772
:1014E0001D089E000430B5008A1183120313E12108
:1014F0008A158A1157218A15FC2A2F08033C031DDF
:10150000882A831603171D089E00FE2A83120313E0
:101510002F08043C031D932A831603171D089E0001
:10152000FE2A831203132F08053C031D9E2A8316EF
:1015300003171D089E00FE2A831203132F08063C82
:10154000031DA92A831603171D089E00FE2A831275
:1015500003132F08073C031DB72A831603171D0822
:101560009E008A1183120313D2278A15FC2A2F08A2
:10157000083C031DC52A831603171D089E008A1107
:1015800083120313D2278A15FC2A2F08093C031D56
:10159000D32A831603171D089E008A118312031392
:1015A000D2278A15FC2A2F080A3C031DE12A83163C
:1015B00003171D089E008A1183120313D2278A1570
:1015C000FC2A2F080B3C031DEF2A831603171D0866
:1015D0009E008A1183120313D2278A15FC2A2F0832
:1015E0000C3C031DFC2A831603171D089E008A115C
:1015F00083120313D2278A15831603171E2B1B0889
:10160000C039031D1E2B1B1E1E2B0F309B051B08F4
:101610000C3C031C1D2B831203132F088316031786
:101620001B0203191C2B1B089C008A118312031335
:10163000E1228A15831603171D2B1E2B0313831219
:101640008A110A16F32A33303E0784008313831667
:10165000031723088000831203133E08093C031D6F
:10166000362BBD080319352BBE013C2B01303D0242
:101670003E0203193C2BBE0A0034070883160317E9
:101680009A00831203134108831603171A020319E1
:101690008C2B1A08831203134106831603179B0031
:1016A0009C011C08053C031C862B0130F7001C081C
:1016B000F80003195F2B0310F70DF80B5B2B77086D
:1016C0001B050319842B0130F7001C08F8000319CF
:1016D0006D2B0310F70DF80B692B77081A0503190A
:1016E0007B2B1C08A0389D00A30083120313232327
:1016F000822B831603171C0890389D00A3008312C9
:1017000003132323831603179C0A512B1A088312F1
:101710000313C10083160317031383128A110A16D9
:10172000FE2A831603179A019B019C019D01A001CB
:10173000A101FC3003138800831288000330F700F6
:10174000F70BA02B0808F039F700F70E0F30F7055C
:101750007708831603179B019A00FA300313880059
:10176000831288000330F700F70BB42B0808F03918
:10177000FA01831603179A047A089B04F6300313C0
:101780008800831288000330F700F70BC52B080888
:10179000F039F90083160317A101790CA000A00C01
:1017A000A00CA00C0F30A00500309A0420089B0468
:1017B000831203133F08831603171A02031DE82B35
:1017C000831203134008831603171B020319622CAC
:1017D0001A08831203133F06831603179C001B0885
:1017E000831203134006831603179D009F019E0179
:1017F0009F08031D562C1E080B3C031C562CFA0197
:101800000130F9001E08F70003190B2C0310F90D25
:10181000FA0DF70B062C79081C05F7007A081D0550
:10182000FA0077087A040319522CFA010130F90002
:101830001E08F7000319212C0310F90DFA0DF70B00
:101840001C2C79081A05F7007A081B05FA0077089E
:101850007A0403193F2C1F08FA001E088A1183120C
:10186000031345208A15F800203883160317A200B9
:10187000A300831203132323502C831603171F087E
:10188000FA001E088A118312031345208A15F800F6
:10189000103883160317A200A30083120313232317
:1018A000831603179E0A03199F0AF82B1B0883123D
:1018B0000313C000831603171A0883120313BF0013
:1018C00083160317031383128A110A16052B2F0B95
:1018D000A62C7608831603179A000130F7001A0821
:1018E000F8000319772C0310F70DF80B732C770809
:1018F000FF3A831203138505750B882C7608053C87
:10190000031D862CF5010430F600872CF60A9C2C6A
:10191000F508031D942C760B922C0130F500023053
:10192000F600932CF6039C2CFC08031D9B2C8A11BB
:1019300037228A159C2CFC03760883160317A00017
:101940008A118312031370228A15122D2F08023C6C
:101950000319122D2F08033C031DD72CFC08031973
:10196000D62C7C0BD52C750BC42C90307D078400B5
:1019700083170008831603179A009F008A118312A9
:10198000031381228A15D32C7508023C0319D32C2A
:101990007508033C0319D32C7508043C031DD32C94
:1019A0008A11C8228A15FC01D62CFC03122D2F089F
:1019B000043C0319122D2F08053C0319122D2F0882
:1019C000063C0319122D2F08073C031DEB2C8A112E
:1019D000F6278A15122D2F08083C031DF32C8A11B7
:1019E000F6278A15122D2F08093C031DFB2C8A119E
:1019F000F6278A15122D2F080A3C031D032D8A1184
:101A0000F6278A15122D2F080B3C031D0B2D8A116A
:101A1000F6278A15122D2F080C3C031D122D8A1152
:101A2000F6278A158A110A16102BB01D8C2DB011BD
:101A30004208453C031D272D053083160317A000DF
:101A40008A118312031370228A15E4013C2D630866
:101A5000033C031D2B2D6308043C031D312D301E58
:101A6000312D6308103C031D352D630B3C2D4208BE
:101A7000533C031D3C2D30126308E400E3012F0B9F
:101A8000562D6408831603179A001A08153C031D87
:101A9000532DB401BE30B3008A11831203134222C6
:101AA0008A15831603178A2D831203132F08023C0D
:101AB000031D612D6408831603179A008A2D831273
:101AC00003132F08033C031D6C2D640883160317B2
:101AD0009A008A2D831203132F08043C031D772DCF
:101AE0006408831603179A008A2D831203132F08A4
:101AF000053C031D822D6408831603179A008A2D66
:101B0000831203132F08063C031D8C2D64088316D3
:0E1B100003179A00831203138A110A162D2B55
:10200000840183131F308305813083169900A63025
:10201000980090308312980083161F149F141F1588
:102020009F118312A801A901AE01AF013010B010B9
:1020300030110A30B100B200BD01BE01FF30BF0057
:10204000C000C100E201E301E401B0113C30E50051
:102050003012E601E701F201F3016D308316BE0094
:102060006130BF006E30C0006330C1003130C2004B
:10207000C3016630C4006130C5007230C6007430E0
:10208000C7003130C800C9017430CA006F30CB00BE
:102090006E30CC005F30CD006330CE00CF017430A5
:1020A000D0006F30D1006E30D2005F30D30064308A
:1020B000D400D5017430D6006F30D7006E30D80010
:1020C0005F30D9006530DA00DB017430DC006F303E
:1020D000DD006E30DE005F30DF006630E000E101E1
:1020E0007430E2006F30E3006E30E4005F30E500F2
:1020F0006730E600E7016D30E8006F30E900EA0084
:102100003130EB00EC0168308312031790006F3020
:10211000910072309200733093006530940031303A
:1021200095009601643097006F3098006E309900EA
:102130006B309A0065309B0079309C0031309D00F7
:102140009E0173309F006830A0006530A100A2009E
:102150007030A3003130A400A5016430A6006F30B8
:10216000A7006730A8003130A900AA016230AB0097
:102170006F30AC006930AD006E30AE006730AF003C
:102180003130B000B1016230B2006F30B30069305D
:10219000B4006E30B5006730B6003230B700B80119
:1021A0006230B9006F30BA006930BB006E30BC00DD
:1021B0006730BD003330BE00BF016230C0006F30F9
:1021C000C1006930C2006E30C3006730C4003430D3
:1021D000C500C6016230C7006F30C8006930C90051
:1021E0006E30CA006730CB003530CC00CD01623094
:1021F000CE006530CF006C30D000D1003130D2003D
:10220000D3016230D4006530D5006C30D600D700E1
:102210003230D800D9016230DA006530DB006C3032
:10222000DC00DD003330DE00DF016230E0006530CD
:10223000E1006C30E200E3003430E400E50162309C
:10224000E6006530E7006C30E800E9003530EA0070
:10225000EB01FC0104308316900002309100013044
:102260009200053093000330940001309500033054
:10227000960004309700023098000530990003134F
:10228000ED01EE018312B0137E101F1083161F1490
:102290009F141F159F1183128501860187018801F4
:1022A000890100308316850001308600BE3087002A
:1022B00009148914091501178530831290008316BB
:1022C0000C148C1683120B16C0308B040A12572183
:1022D0000A160C30831603179D000A12831203138B
:1022E00072210A160230831603179A0096309B005B
:1022F0000A1283120313CD210A16831603179A0BB1
:1023000076290B309D000A128312031372210A16DC
:102310000230831603179A0096309B000A1283122C
:102320000313CD210A16831603179A0B8C290A3042
:102330009D000A128312031372210A1602308316BB
:1023400003179A0096309B000A1283120313CD21C3
:102350000A16831603179A0BA22909309D000A1248
:102360008312031372210A160230831603179A0090
:1023700096309B000A1283120313CD210A1683168E
:1023800003179A0BB82908309D000A128312031311
:1023900072210A160230831603179A0096309B00AA
:1023A0000A1283120313CD210A16831603179A0B00
:1023B000CE2907309D000A128312031372210A16D8
:1023C0000230831603179A0096309B000A1283127C
:1023D0000313CD210A16831603179A0BE42906303E
:1023E0009D000A128312031372210A16023083160B
:1023F00003179A0096309B000A1283120313CD2113
:102400000A16831603179A0BFA2905309D000A1243
:102410008312031372210A160230831603179A00DF
:1024200096309B000A1283120313CD210A168316DD
:1024300003179A0B102A04309D000A12831203130B
:1024400072210A160230831603179A0096309B00F9
:102450000A1283120313CD210A16831603179A0B4F
:10246000262A03309D000A128312031372210A16D2
:102470000230831603179A0096309B000A128312CB
:102480000313CD210A16831603179A0B3C2A023038
:102490009D000A128312031372210A16023083165A
:1024A00003179A0096309B000A1283120313CD2162
:1024B0000A16831603179A0B522A01309D000A123E
:1024C0008312031372210A160230831603179A002F
:1024D00096309B000A1283120313CD210A1683162D
:1024E00003179A0B682A203003139900A63098002E
:1024F00004300317B5000A1283120313E1210A16F0
:10250000023083160317B5000A1283120313E12168
:102510000A16113083160317B5000A12831203132B
:10252000E1210A16143083160317B5000A1283122C
:102530000313E1210A16163083160317B5000A1299
:1025400083120313E1210A160A121A2A0A16053009
:1025500003178D0083168C130C1483120C080313BD
:10256000AF006430831603179B000A128312031313
:10257000CD210A162F08831603179C000A12831216
:102580000313E1220A160A12852D0A16B01FD22A59
:10259000B0133012831603179A010A128312031321
:1025A000C82D0A167E1CDD2A7E10831603179A0199
:1025B0000A12831203139A2E0A16E4080319E12A59
:1025C000E4013E083D020319F82A33303D07840038
:1025D00083130008831603179A009B000A128A15BA
:1025E0008312031300280A168A110A12D32F0A161F
:1025F000301C072B30100A128A153D2B0A168A113F
:102600000918072B0A128A15912B0A168A11B01C79
:102610000A2BB010301D2A2B30110A128A15672C94
:102620000A168A11E30803192A2BE60B2A2B053018
:1026300083160317A0000A128312031370220A16CE
:10264000E401E201E7030319292B0A1243240A16C5
:102650002A2BE3010A128A15152D0A168A11C32A9C
:02266000630015
:02400E00323F3F
:00000001FF
;PIC16F877
